:020000040800F2
:1000000000500020AD250008FD250008FD25000852
:10001000FD250008FD250008FD2500080000000062
:10002000000000000000000000000000FD250008A6
:10003000FD25000800000000FD250008D11500087E
:10004000FD250008FD250008FD250008FD25000808
:10005000FD250008FD250008FD250008FD250008F8
:10006000FD250008FD25000855150008FD250008A0
:10007000FD250008FD250008FD250008FD250008D8
:10008000FD250008FD250008FD250008FD250008C8
:10009000FD250008FD250008FD250008FD250008B8
:1000A000FD250008FD250008FD250008FD250008A8
:1000B000FD250008FD250008FD250008FD25000898
:1000C000FD250008FD250008FD250008FD25000888
:1000D000FD250008FD250008D51D0008FD250008A8
:1000E000FD250008FD25000800000000FD25000892
:1000F000FD250008FD250008FD250008FD25000858
:10010000FD250008FD250008FD250008FD25000847
:10011000FD250008FD250008FD250008FD25000837
:10012000FD250008FD250008FD250008FD25000827
:1001300010B5054C237833B9044B13B10448AFF321
:1001400000800123237010BD20010020000000006A
:10015000502F000808B5034B1BB103490348AFF308
:10016000008008BD0000000024010020502F00087E
:100170004FF0FF0C1CEAD0521EBF1CEAD15392EA8A
:100180000C0F93EA0C0F6FD01A4480EA010C400266
:1001900018BF5FEA41211ED04FF0006343EA5010C0
:1001A00043EA5111A0FB01310CF00040B1F5000F02
:1001B0003EBF490041EAD3715B0040EA010062F1B1
:1001C0007F02FD2A1DD8B3F1004F40EBC25008BF9B
:1001D00020F00100704790F0000F0CF0004C08BFB9
:1001E00049024CEA502040EA51207F3AC2BFD2F186
:1001F000FF0340EAC250704740F400004FF0000394
:10020000013A5DDC12F1190FDCBF00F000407047CD
:10021000C2F10002410021FA02F1C2F1200200FA0B
:1002200002FC5FEA310040F1000053EA4C0308BFD2
:1002300020EADC70704792F0000F00F0004C02BF23
:10024000400010F4000F013AF9D040EA0C0093F09E
:10025000000F01F0004C02BF490011F4000F013BF8
:10026000F9D041EA0C018FE70CEAD15392EA0C0F66
:1002700018BF93EA0C0F0AD030F0004C18BF31F0D1
:10028000004CD8D180EA010000F00040704790F0A7
:10029000000F17BF90F0004F084691F0000F91F04B
:1002A000004F14D092EA0C0F01D142020FD193EA11
:1002B0000C0F03D14B0218BF084608D180EA010099
:1002C00000F0004040F0FE4040F40000704740F075
:1002D000FE4040F44000704781F0004102E000BF62
:1002E00083F0004330B54FEA41044FEA430594EAF6
:1002F000050F08BF90EA020F1FBF54EA000C55EA31
:10030000020C7FEA645C7FEA655C00F0E2804FEA01
:100310005454D4EB5555B8BF6D420CDD2C4480EAE3
:10032000020281EA030382EA000083EA010180EA13
:10033000020281EA0303362D88BF30BD11F0004F61
:100340004FEA01314FF4801C4CEA113102D0404297
:1003500061EB410113F0004F4FEA03334CEA1333D2
:1003600002D0524263EB430394EA050F00F0A780EA
:10037000A4F10104D5F1200E0DDB02FA0EFC22FAE5
:1003800005F2801841F1000103FA0EF2801843FAD9
:1003900005F359410EE0A5F120050EF1200E012ACA
:1003A00003FA0EFC28BF4CF0020C43FA05F3C01808
:1003B00051EBE37101F0004507D54FF0000EDCF181
:1003C000000C7EEB00006EEB0101B1F5801F1BD32A
:1003D000B1F5001F0CD349085FEA30004FEA3C0C2E
:1003E00004F101044FEA445212F5800F80F09A8024
:1003F000BCF1004F08BF5FEA500C50F1000041EB28
:10040000045141EA050130BD5FEA4C0C404141EB2B
:100410000101013C28BFB1F5801FE9D291F0000F26
:1004200004BF01460020B1FA81F308BF2033A3F1D5
:100430000B03B3F120020CDA0C3208DD02F1140CCC
:10044000C2F10C0201FA0CF021FA02F10CE002F107
:100450001402D8BFC2F1200C01FA02F120FA0CFC00
:10046000DCBF41EA0C019040E41AA2BF01EB045149
:10047000294330BD6FEA04041F3C1CDA0C340EDC47
:1004800004F11404C4F1200220FA04F001FA02F38A
:1004900040EA030021FA04F345EA030130BDC4F148
:1004A0000C04C4F1200220FA02F001FA04F340EA3D
:1004B0000300294630BD21FA04F0294630BD94F0EE
:1004C000000F83F4801306BF81F480110134013DD5
:1004D0004EE77FEA645C18BF7FEA655C29D094EA46
:1004E000050F08BF90EA020F05D054EA000C04BFC4
:1004F0001946104630BD91EA030F1EBF00210020AF
:1005000030BD5FEA545C05D14000494128BF41F04D
:10051000004130BD14F580043CBF01F5801130BDB1
:1005200001F0004545F0FE4141F470014FF000003C
:1005300030BD7FEA645C1ABF194610467FEA655CED
:100540001CBF0B46024650EA013406BF52EA03358F
:1005500091EA030F41F4002130BD00BF90F0000F7D
:1005600004BF0021704730B54FF4806404F13204B9
:100570004FF000054FF0000150E700BF90F0000F72
:1005800004BF0021704730B54FF4806404F1320499
:1005900010F0004548BF40424FF000013EE700BF69
:1005A00042004FEAE2014FEA31014FEA02701FBFF9
:1005B00012F07F4393F07F4F81F06051704732F02B
:1005C0007F4208BF704793F07F4F04BF41F4002182
:1005D000704730B54FF4607401F0004521F00041E0
:1005E0001CE700BF50EA010208BF704730B54FF06A
:1005F00000050AE050EA010208BF704730B511F06B
:10060000004502D5404261EB41014FF4806404F1A2
:1006100032045FEA915C3FF4D8AE4FF003025FEA28
:10062000DC0C18BF03325FEADC0C18BF033202EBAC
:10063000DC02C2F1200300FA03FC20FA02F001FA06
:1006400003FE40EA0E0021FA02F11444BDE600BFA9
:1006500070B54FF0FF0C4CF4E06C1CEA11541DBF58
:100660001CEA135594EA0C0F95EA0C0F00F0DEF823
:100670002C4481EA030621EA4C5123EA4C5350EA08
:10068000013518BF52EA033541F4801143F4801359
:1006900038D0A0FB02CE4FF00005E1FB02E506F0EA
:1006A0000042E0FB03E54FF00006E1FB03569CF03F
:1006B000000F18BF4EF0010EA4F1FF04B6F5007F45
:1006C00064F5407404D25FEA4E0E6D4146EB0606B7
:1006D00042EAC62141EA55514FEAC52040EA5E5040
:1006E0004FEACE2EB4F1FD0C88BFBCF5E06F1ED8EA
:1006F000BEF1004F08BF5FEA500E50F1000041EB21
:10070000045170BD06F0004646EA010140EA0200CD
:1007100081EA0301B4EB5C04C2BFD4EB0C0541EAEF
:10072000045170BD41F480114FF0000E013C00F304
:10073000AB8014F1360FDEBF002001F0004170BD28
:10074000C4F10004203C35DA0C341BDC04F1140441
:10075000C4F1200500FA05F320FA04F001FA05F2CD
:1007600040EA020001F0004221F0004110EBD3709A
:1007700021FA04F642EB06015EEA430E08BF20EAC6
:10078000D37070BDC4F10C04C4F1200500FA04F369
:1007900020FA05F001FA04F240EA020001F00041FB
:1007A00010EBD37041F100015EEA430E08BF20EA6E
:1007B000D37070BDC4F1200500FA05F24EEA020EB6
:1007C00020FA04F301FA05F243EA020321FA04F0E5
:1007D00001F0004121FA04F220EA020000EBD3709C
:1007E0005EEA430E08BF20EAD37070BD94F0000F9C
:1007F0000FD101F00046400041EB010111F4801FD0
:1008000008BF013CF7D041EA060195F0000F18BF80
:10081000704703F00046520043EB030313F4801FBC
:1008200008BF013DF7D043EA0603704794EA0C0F76
:100830000CEA135518BF95EA0C0F0CD050EA41068C
:1008400018BF52EA4306D1D181EA030101F0004109
:100850004FF0000070BD50EA410606BF1046194631
:1008600052EA430619D094EA0C0F02D150EA01363D
:1008700013D195EA0C0F05D152EA03361CBF10467E
:1008800019460AD181EA030101F0004141F0FE411D
:1008900041F470014FF0000070BD41F0FE4141F4A1
:1008A000780170BD70B54FF0FF0C4CF4E06C1CEAA1
:1008B00011541DBF1CEA135594EA0C0F95EA0C0F56
:1008C00000F0A7F8A4EB050481EA030E52EA033511
:1008D0004FEA013100F088804FEA03334FF0805532
:1008E00045EA131343EA12634FEA022245EA11155F
:1008F00045EA10654FEA00260EF000419D4208BF10
:10090000964244F1FD0404F5407402D25B084FEABC
:100910003202B61A65EB03055B084FEA32024FF468
:1009200080104FF4002CB6EB020E75EB030E22BFC5
:10093000B61A754640EA0C005B084FEA3202B6EB85
:10094000020E75EB030E22BFB61A754640EA5C0034
:100950005B084FEA3202B6EB020E75EB030E22BFC4
:10096000B61A754640EA9C005B084FEA3202B6EBC5
:10097000020E75EB030E22BFB61A754640EADC0084
:1009800055EA060E18D04FEA051545EA16754FEAE6
:1009900006164FEAC30343EA52734FEAC2025FEA04
:1009A0001C1CC0D111F4801F0BD141EA00014FF093
:1009B00000004FF0004CB6E711F4801F04BF014364
:1009C0000020B4F1FD0C88BFBCF5E06F3FF6AFAE80
:1009D000B5EB030C04BFB6EB020C5FEA500C50F110
:1009E000000041EB045170BD0EF0004E4EEA113193
:1009F00014EB5C04C2BFD4EB0C0541EA045170BD9A
:100A000041F480114FF0000E013C90E645EA060EDD
:100A10008DE60CEA135594EA0C0F08BF95EA0C0F0B
:100A20003FF43BAF94EA0C0F0AD150EA01347FF453
:100A300034AF95EA0C0F7FF425AF104619462CE72A
:100A400095EA0C0F06D152EA03353FF4FDAE10468D
:100A5000194622E750EA410618BF52EA43067FF4DE
:100A6000C5AE50EA41047FF40DAF52EA43057FF46E
:100A7000EBAE12E74FEA4102B2F1E04324BFB3F517
:100A8000001CDCF1FE5C0DD901F0004C4FEAC00205
:100A90004CEA5070B2F1004F40EB830008BF20F0E9
:100AA0000100704711F0804F21D113F13872BCBFA3
:100AB00001F00040704741F480114FEA5252C2F1F8
:100AC0001802C2F1200C10FA0CF320FA02F018BF41
:100AD00040F001004FEAC1234FEAD32303FA0CFC94
:100AE00040EA0C0023FA02F34FEA4303CCE77FEA23
:100AF000625307D150EA01331EBF4FF0FE4040F46D
:100B00004000704701F0004040F0FE4040F400001B
:100B1000704700BF80F0004002E000BF81F000415C
:100B200042001FBF5FEA410392EA030F7FEA226C93
:100B30007FEA236C6AD04FEA1262D2EB1363C1BF23
:100B4000D218414048404140B8BF5B42192B88BF92
:100B5000704710F0004F40F4000020F07F4018BFB5
:100B6000404211F0004F41F4000121F07F4118BFD5
:100B7000494292EA030F3FD0A2F1010241FA03FC7D
:100B800010EB0C00C3F1200301FA03F100F0004365
:100B900002D5494260EB4000B0F5000F13D3B0F12D
:100BA000807F06D340084FEA310102F10102FE2A9C
:100BB00051D2B1F1004F40EBC25008BF20F001000C
:100BC00040EA03007047490040EB0000013A28BFAB
:100BD000B0F5000FEDD2B0FA80FCACF1080CB2EB2E
:100BE0000C0200FA0CF0AABF00EBC25052421843AC
:100BF000BCBFD0401843704792F0000F81F4000151
:100C000006BF80F400000132013BB5E74FEA410323
:100C10007FEA226C18BF7FEA236C21D092EA030F8F
:100C200004D092F0000F08BF0846704790EA010F09
:100C30001CBF0020704712F07F4F04D1400028BF36
:100C400040F00040704712F100723CBF00F5000018
:100C5000704700F0004343F0FE4040F4000070474E
:100C60007FEA226216BF08467FEA236301464202FA
:100C700006BF5FEA412390EA010F40F4800070470D
:100C80004FF0000304E000BF10F0004348BF4042B3
:100C90005FEA000C08BF704743F0964301464FF0EF
:100CA00000001CE050EA010208BF70474FF000034B
:100CB0000AE000BF50EA010208BF704711F000438C
:100CC00002D5404261EB41015FEA010C02BF84465C
:100CD0000146002043F0B64308BFA3F18053A3F5BB
:100CE0000003BCFA8CF2083AA3EBC25310DB01FA02
:100CF00002FC634400FA02FCC2F12002BCF1004F86
:100D000020FA02F243EB020008BF20F00100704716
:100D100002F1200201FA02FCC2F1200250EA4C006A
:100D200021FA02F243EB020008BF20EADC707047B0
:100D30004FF0FF3C06E000BF4FF0010C02E000BFA7
:100D40004FF0010C4DF804CD4FEA40024FEA410349
:100D50007FEA226C18BF7FEA236C11D001B052EAFF
:100D6000530C18BF90EA010F58BFB2EB030088BFC5
:100D7000C81738BF6FEAE17018BF40F00100704734
:100D80007FEA226C02D15FEA402C05D17FEA236C16
:100D9000E4D15FEA412CE1D05DF8040B704700BF5D
:100DA000844608466146FFE70FB5FFF7C9FF0028F4
:100DB00048BF10F1000F0FBD4DF808EDFFF7F4FF2D
:100DC0000CBF012000205DF808FB00BF4DF808EDC6
:100DD000FFF7EAFF34BF012000205DF808FB00BFE9
:100DE0004DF808EDFFF7E0FF94BF012000205DF80B
:100DF00008FB00BF4DF808EDFFF7D2FF94BF0120BC
:100E000000205DF808FB00BF4DF808EDFFF7C8FFB4
:100E100034BF012000205DF808FB00BF4FEA40020C
:100E2000B2F1FE4F0FD34FF09E03B3EB12620DD918
:100E30004FEA002343F0004310F0004F23FA02F082
:100E400018BF404270474FF00000704712F1610F29
:100E500001D1420205D110F0004008BF6FF0004000
:100E600070474FF00000704742000ED2B2F1FE4FC3
:100E70000BD34FF09E03B3EB126209D44FEA002369
:100E800043F0004323FA02F070474FF00000704730
:100E900012F1610F01D1420202D14FF0FF307047D1
:100EA0004FF00000704700BF80B500AF174B1B68C4
:100EB000DB78184600F0C2F8144B1B681B79184603
:100EC00000F0D6F8114B1B685B79184600F0EAF881
:100ED0000E4B1B689A780D4B1B685B7819461046C1
:100EE00000F082F8094B1B681B78184600F012F8D6
:100EF000012000F015F941F61D2000F0EDF804483E
:100F000000F0FCF800F0D4F900BF80BD080000201C
:100F10000000420280B485B000AF0346FB7100239D
:100F2000FB73FB79012B1FD12E4B1B682D4A43F419
:100F30008033136000BF2B4B1B6803F40033002B7E
:100F4000F9D0284B5B68274A23F003035360254BF5
:100F50005B68244A43F001035360224B1B68214A1B
:100F600023F00103136037E0FB79002B17D11D4BF1
:100F70001B681C4A43F00103136000BF194B1B6838
:100F800003F00203002BF9D0164B5B68154A23F0DF
:100F900003035360134B134A5B6853601CE0FB79F7
:100FA000022B19D10F4B1B680E4A43F0807313605C
:100FB00000BF0C4B1B6803F00073002BF9D0094BEA
:100FC0005B68084A43F00203536000BF054B5B684F
:100FD00003F00C03082BF9D1FB7B18461437BD46F0
:100FE00080BC70470010024080B483B000AF03465D
:100FF0000A46FB711346BB710F4B5B680E4A23F424
:10100000701353600C4B5A68BB799B040A49134315
:101010004B60094B5B68084A23F480335360064BEE
:101020005A68FB79044913434B60012318460C3777
:10103000BD4680BC704700BF0010024080B483B042
:1010400000AF0346FB71094B5B68084A23F0F003CD
:101050005360064B5A68FB791B01044913434B60EC
:1010600000BF0C37BD4680BC704700BF0010024077
:1010700080B483B000AF0346FB71094B5B68084A3C
:1010800023F4E0635360064B5A68FB791B02044962
:1010900013434B6000BF0C37BD4680BC704700BF98
:1010A0000010024080B483B000AF0346FB71094BCF
:1010B0005B68084A23F4F0435360064B5A68FB7997
:1010C000DB02044913434B6000BF0C37BD4680BCB4
:1010D000704700BF0010024080B483B000AF78605A
:1010E000054B9A6904497B6813438B6100BF0C3739
:1010F000BD4680BC704700BF0010024080B483B082
:1011000000AF7860054BDA6904497B681343CB6113
:1011100000BF0C37BD4680BC704700BF00100240C6
:1011200080B483B000AF7860054B5A6904497B688E
:1011300013434B6100BF0C37BD4680BC704700BFF6
:101140000010024080B588B000AF0346FB71334BFE
:101150005B689B08DBB203F00303FB74FB7C002B92
:1011600002D12F4BFB6111E0FB7C012B02D12C4BF8
:10117000FB610BE0FB7C022B03D100F057F8F86118
:1011800004E0FB7C032B01D10123FB61234B5B6853
:101190001B0903F00F03FB60FB68072B02D8012338
:1011A000BB6105E0FB68083B1E4A32F81330BB61A7
:1011B000FB79012B11D1194B5B681B0A03F0070364
:1011C000FB60FB68032B02D801237B6105E0FB6811
:1011D000043B154A32F813307B61FB79022B11D1A5
:1011E0000E4B5B68DB0A03F00703FB60FB68032B15
:1011F00002D801237B6105E0FB68043B0A4A32F810
:1012000013307B61FA69BB69B2FBF3F27B69B2FB15
:10121000F3F318462037BD4680BD00BF00100240E2
:1012200000127A000C0000201C00002080B485B061
:1012300000AF1B4B5B681B0CDBB203F00103FB72BE
:10124000174B5B689B0C03F00F037B60144B5B68D0
:101250005B0C03F001033B600023FB60FB7A002B77
:1012600009D1104A7B6813441B781A460E4B02FBC7
:1012700003F3FB600EE0FB7A012B0BD13B680133DB
:101280000A4AB2FBF3F307497A680A44127802FB70
:1012900003F3FB60FB6818461437BD4680BC7047FB
:1012A000001002402400002000093D0000127A00D6
:1012B00080B400AF084B5B6A074A43F001035362F6
:1012C00000BF054B5B6A03F00203002BF9D000BF9F
:1012D00000BFBD4680BC70470010024080B483B0A0
:1012E00000AF0346FB71FB791B09DBB203F003037C
:1012F000DBB218460C37BD4680BC704780B483B063
:1013000000AF0346FB71FB7903F00F03DBB2184615
:101310000C37BD4680BC704780B582B000AF022359
:10132000FB710DE0FA7913465B001344084A1A4436
:10133000FB791146184600F00DF8FB790133FB717B
:10134000FB79302BEED900BF00BF0837BD4680BD0A
:101350003400002080B582B000AF03463960FB71D5
:101360003B6819783B685A783B689B78F87900F0BD
:1013700005F800BF0837BD4680BD000090B585B0B8
:1013800000AF0446084611461A462346FB71034641
:10139000BB710B467B7113463B71FB791846FFF717
:1013A000ADFF03461A463C4B1A70FB791846FFF70F
:1013B00095FF03469B0203F1804303F58433FB60F2
:1013C0007B79022B1BD13B79012B0AD1FB68DB68AF
:1013D000314A1278114601228A401A43FB68DA60CA
:1013E0000DE03B79002B0AD1FB68DB682A4A1278B2
:1013F000114601228A40D2431A40FB68DA60264B2C
:101400001B78072B1ED8FB681B68234A12789200B2
:101410000F2101FA02F2D2431A40FB681A60FB68FE
:101420001B68B9791C4A12789200914078791A4A5F
:1014300012789200023200FA02F20A431A43FB6861
:101440001A6024E0144B1B7803F00703DAB2124B46
:101450001A70FB685B68104A127892000F2101FA3B
:1014600002F2D2431A40FB685A60FB685B68B979A4
:10147000094A1278920091407879074A12789200CE
:10148000023200FA02F20A431A43FB685A6000BFB4
:101490001437BD4690BD00BF3D01002080B584B02B
:1014A00000AF03460A46FB711346BB71FB79184631
:1014B000FFF714FF03469B0203F1804303F58433D7
:1014C000FB60BB79002B10D0012B1DD1FB79184696
:1014D000FFF714FF03461A4601239340DA43FB68E3
:1014E000DB681A40FB68DA600EE0FB791846FFF70C
:1014F00005FF03461A46012303FA02F2FB68DB6884
:101500001A43FB68DA6000BF00BF1037BD4680BDDC
:1015100090B585B000AF0346FB71FB791846FFF725
:10152000DDFE03469B0203F1804303F58433FB6039
:10153000FB689B689CB2FB791846FFF7DFFE034609
:101540001A46012393409BB223409BB2184614379E
:10155000BD4690BD80B500AF104B5B6903F0100332
:10156000002B18D00D4B5B690C4A43F010035361FC
:101570000B4B1B78002B07D100212D20FFF78EFF8E
:10158000074B01221A7006E001212D20FFF786FF8C
:10159000034B00221A7000BF80BD00BF0004014051
:1015A0003C01002080B400AF084B41F63F725A6006
:1015B000064B00229A60054B1B68044A43F0070360
:1015C000136000BFBD4680BC704700BF10E000E064
:1015D00080B400AF0D4B1B8801339AB20B4B1A80BD
:1015E0000B4B1B8801339AB2094B1A80094B1B889D
:1015F00001339AB2074B1A80074B1B680133064A26
:10160000136000BFBD4680BC704700BF3E01002094
:1016100040010020420100204401002080B400AFBE
:10162000024B1B681846BD4680BC70474401002031
:1016300080B500AF104B114A1A600F4B02221A718D
:101640000D4B00229A710C4B00225A710A4B4FF439
:10165000E1329A60084B0022DA60074B084A5A616F
:10166000054B084A9A61044B08225A77024800F059
:1016700037F800BF80BD00BF90020020004400404A
:10168000480100209801002080B500AF104B114A9E
:101690001A600F4B02221A710D4B00229A710C4BEB
:1016A00000225A710A4B4FF4E1329A60084B002233
:1016B000DA60074B084A5A61054B084A9A61044BA5
:1016C00008225A77024800F00BF800BF80BD00BF27
:1016D000B00200200048004048010020980100208E
:1016E00080B582B000AF78607B681A687B689B79B0
:1016F0001946104600F085F97B681A687B685B79AB
:101700001946104600F095F97B681A687B68DB681B
:10171000DBB21946104600F09EF97B681A687B68B8
:101720001B791946104600F0B4F97B681A687B688B
:101730009B681946104600F01FF87B681A687B68A2
:101740001B7C1946104600F00FFB7B681A687B680B
:101750005B7C1946104600F007FB7B681B68184647
:1017600000F040F97B681B68184600F0EDFA00BFF6
:101770000837BD4680BD0000B0B588B000AF7860C6
:1017800039600120FFF7DEFC78617869FEF7E6FE3C
:1017900004460D463868FEF7E1FE4FF00002264B86
:1017A000FEF756FF02460B4620462946FFF77AF819
:1017B00002460B4610461946FFF75CF903463B61AB
:1017C0003869FFF72BFB03461846FFF75DFA03461F
:1017D00019463869FFF7A2F90346FB60F9683869D2
:1017E000FFF79CF903461846FFF73EFB0346FB61F3
:1017F0004FF08341F868FEF7BBFC0346184600F043
:1018000001FBB861BB690F2B04D90023BB61FB69E5
:101810000133FB617B689A68FB691B011A437B6893
:101820009A607B689A68BB691A437B689A6000BFBC
:101830002037BD46B0BD00BF0000304080B584B049
:1018400000AFF860B9601346FB71FB68BA685A6173
:10185000FB68FA791A77F86800F004F800BF1037CF
:10186000BD4680BD80B582B000AF78603DE000BF6E
:101870007B681B688021184600F035F90346002B71
:10188000F6D07B685B79012B20D17B68DB68002B6D
:1018900010D17B685B691A787B681B685A607B682B
:1018A0005B695A1C7B685A617B685B695A1C7B6860
:1018B0005A611AE07B685B691A787B681B685A601A
:1018C0007B685B695A1C7B685A610EE07B685B79B8
:1018D000002B0AD17B685B691A787B681B685A60A9
:1018E0007B685B695A1C7B685A617B681B7F5A1E48
:1018F000D1B27A681177002BB9D100BF7B681B6821
:101900004021184600F0EFF80346012BF6D100BF46
:1019100000BF0837BD4680BD80B586B000AFF86017
:10192000B9603B601346FB80FFF778FE78614AE0C0
:10193000FB885A1EFA80002B3CD0FB685B79012B98
:101940001DD1FB68DB68002B0FD1FB681B685B684F
:101950009BB2C3F308039AB2BB681A80BB68013319
:10196000BB60BB680133BB6024E0FB681B685B683D
:10197000DAB2BB681A70BB680133BB601AE0FB685F
:101980005B79002B16D1FB68DB68002B09D1FB6863
:101990001B685B68DAB2BB681A70BB680133BB6056
:1019A00008E0FB681B685B68DAB2BB681A70BB684A
:1019B0000133BB60FB681B682021184600F093F8D8
:1019C0000346002BB4D1FFF729FE02467B69D31AE8
:1019D0003A689A4202D9FB88002BEBD100BF183736
:1019E000BD4680BD80B483B000AF78607B68DB68A3
:1019F00043F400527B68DA6000BF0C37BD4680BC00
:101A0000704780B483B000AF78600B46FB707B6892
:101A10001B6923F440527B681A617B681A69FB7862
:101A20001B031A437B681A6100BF0C37BD4680BC9C
:101A3000704780B483B000AF78600B46FB707B6862
:101A4000DA68FB781B031A437B68DA6000BF0C3747
:101A5000BD4680BC704780B483B000AF78600B4651
:101A6000FB70FB78012B06D17B68DB6843F4806256
:101A70007B68DA6008E0FB78022B05D17B68DB68C5
:101A800043F4C0627B68DA6000BF0C37BD4680BC9F
:101A9000704780B483B000AF78600B46FB70FB7872
:101AA000022B14D0022B19DC002B02D0012B07D003
:101AB00014E07B68DB6843F008027B68DA600DE0C5
:101AC0007B68DB6843F004027B68DA6006E07B68D1
:101AD000DB6843F00C027B68DA60FFE700BF0C377D
:101AE000BD4680BC704780B483B000AF78600B46C1
:101AF000FB707B681A68FB781340002B01D0012330
:101B000000E0002318460C37BD4680BC704700003B
:101B100080B584B000AF78607B681B6840211846B0
:101B2000FFF7E1FF0346012B28D17B685A697E4B02
:101B30001B78591CC8B27C490870194612787B4B37
:101B40005A547B685B691B78002B17D17B681B6834
:101B5000DA687B681B6822F08002DA607B681B68A9
:101B6000DA687B681B6822F04002DA607B681B68D9
:101B7000DA687B681B6822F00802DA607B681B6801
:101B800080211846FFF7AFFF0346012B58D1684B61
:101B90001B780133DAB2664B1A707B685A69654B61
:101BA0001B78591CC8B26349087019461278624BF9
:101BB0005A547B685B691B78002B39D07B685B7952
:101BC000012B25D17B68DB68002B15D17B685B6915
:101BD000FB60FB681B881A467B681B68C2F308021F
:101BE0005A607B685B695A1C7B685A617B685B69D9
:101BF0005A1C7B685A6123E07B685B691A787B68B2
:101C00001B685A607B685B695A1C7B685A6117E0E5
:101C10007B685B79002B13D17B685B691A787B68E2
:101C20001B685A607B685B695A1C7B685A6107E0D5
:101C30007B681B68DA687B681B6822F08002DA60C8
:101C40007B681B6820211846FFF74DFF0346012BD8
:101C500066D13A4B1B8801339AB2384B1A807B68A5
:101C60005B79012B25D17B68DB68002B14D17B6865
:101C70001B685B689AB27B689B69C2F3080292B2E8
:101C80001A807B689B695A1C7B689A617B689B6998
:101C90005A1C7B689A6133E07B681B685A687B68D2
:101CA0009B69D2B21A707B689B695A1C7B689A61E7
:101CB00026E07B685B79002B22D17B68DB68002BF8
:101CC00012D17B681B685A687B689B69D2B21A7014
:101CD0007B689B695A1C7B689A617B685B7F013BD0
:101CE000DAB27B685A770BE07B681B685A687B68BE
:101CF0009B69D2B21A707B689B695A1C7B689A6197
:101D00007B685B7F002B0BD17B681B68DA687B6884
:101D10001B6822F02002DA60094B1B6809489847CB
:101D200000BF1037BD4680BD38020020E80100200A
:101D3000D20200208C0200203C020020D0020020B1
:101D4000D40200209801002080B483B000AF7860F6
:101D50007B68DB6843F004027B68DA6000BF0C3705
:101D6000BD4680BC7047000080B483B000AF78608F
:101D70000B46FB70FB78032B26D801A252F823F008
:101D8000911D00089F1D0008AD1D0008BB1D000827
:101D90007B685B6943F080027B685A6114E07B6872
:101DA0005B6923F080027B685A610DE07B685B69A8
:101DB00043F040027B685A6106E07B685B6923F070
:101DC00040027B685A6100BF00BF0C37BD4680BC33
:101DD000704700BF80B500AF0248FFF799FE00BF13
:101DE00080BD00BF9002002080B500AFFFF75CF817
:101DF000FFF792FAFFF71CFCFFF746FCFFF7D2FB58
:101E000000BF80BD80B586B000AF78607868FFF70E
:101E100005F803463B617868FFF700F8034618466B
:101E2000FEF732FF034619467868FEF777FE034651
:101E3000FB604FF07C51F868FEF7C8FF0346002BAB
:101E400002D00023FB7509E04FF07C51F868FEF7E3
:101E5000D1FF0346002B01D00123FB75FA7D3B69BE
:101E6000134418461837BD4680BD00000FB480B536
:101E700096B000AF002387F857303B1D5022002159
:101E8000184600F021F807F164033B603B1D3A68F7
:101E9000396E184600F0CAFB3B1D184600F02EF8BC
:101EA000034687F8573097F857203B1D19460548D9
:101EB000FFF7C4FC00BF5837BD46BDE8804004B002
:101EC000704700BF9002002080B487B000AFF86078
:101ED000B9607A60FB687B6105E07B695A1C7A61B6
:101EE000BA68D2B21A707B685A1E7A60002BF4D19D
:101EF00000BF00BF1C37BD4680BC704780B485B0B2
:101F000000AF78600023FB7302E0FB7B0133FB73BF
:101F10007B685A1C7A601B78002BF6D1FB7B184635
:101F20001437BD4680BC704780B483B000AF786082
:101F30007B689B6843F001027B689A6000BF0C37A6
:101F4000BD4680BC7047000080B400AF044B5B69A5
:101F5000034A43F04003536100BFBD4680BC704755
:101F60000010024080B400AF044B5B69034A23F0C9
:101F70004003536100BFBD4680BC70470010024063
:101F800080B489B000AFF860B9607A600023BB61AB
:101F900000237B610023FB610AE0BA68FB691344FC
:101FA0001B787B61FB687A691A60FB690133FB610E
:101FB000FA697B689A42F0D3FB681B68BB61BB6916
:101FC00018462437BD4680BC704780B586B000AF48
:101FD000F860B9607A603B6000237B61FFF7B4FF73
:101FE000F868FFF7A1FF7A68B968F868FFF7C8FFDB
:101FF0007861FFF7B7FF7A693B689A420CBF01230B
:102000000023DBB218461837BD4680BD80B584B0CA
:1020100000AF0346FB71FB7903F500339B02FB60C5
:10202000124BDB6803F00103002B01D0012318E001
:1020300000F01EF80D4B1B690C4A43F002031361BC
:102040000A4AFB685361094B1B69084A43F0400385
:10205000136100BF054BDB6803F00103002BF9D1CE
:10206000022318461037BD4680BD00BF0020024045
:1020700080B400AF044B054A5A60034B044A5A60CF
:1020800000BFBD4680BC7047002002402301674569
:10209000AB89EFCD80B584B000AF0E4B1B68FB6001
:1020A000F9680D48FFF7E2FEF86800F01DF80B4BE9
:1020B0001B68BB60B9680A48FFF7D8FEBB687B6045
:1020C000084B044A9A607B68984700BF1037BD46AA
:1020D00080BD00BF00400008682F000804400008D1
:1020E000802F000800ED00E080B483B000AF78607E
:1020F0007B6883F3088800BF0C37BD4680BC7047FF
:1021000080B582B000AF0023FB71C82200212148B6
:10211000FFF7DAFE4FF47A7301221E491E48FFF7DB
:10212000FBFB1C4B1B78FB71FB799AB24FF47A7363
:102130001A491948FFF7F0FB164B5B78513B052B0A
:10214000E3D801A252F823F06121000869210008B8
:1021500071210008792100088121000889210008E7
:102160000C4800F031F814E00A4800F05BF810E089
:10217000084800F081F80CE0064800F0C3F808E0D9
:10218000044800F005F904E0024800F055F900BFEA
:10219000BBE7BAE7D802002090020020D902002055
:1021A00080B584B000AFF860B9607A607B68BA68C7
:1021B000F9680448FFF709FF034618461037BD4683
:1021C00080BD00BF0030024080B586B000AF7860AF
:1021D0007B681B7801337B617B69043B7A6813441D
:1021E0001B683B613A6902217868FFF7D9FF034613
:1021F000002B0ED0012000F055F900F07BF90346CA
:10220000FB7307F10F03012219460548FFF716FB80
:1022100001E000F05DF900BF1837BD4680BD00BF8A
:102220009002002080B584B000AF78607B681B7896
:102230000133FB60FB68043B7A6813441B68BB6096
:10224000BA6802217868FFF7ABFF0346002B08D07D
:102250000C2000F027F90C2205490648FFF7EEFA9A
:1022600001E000F035F900BF1037BD4680BD00BF6A
:10227000C40000209002002080B586B000AF7860D6
:102280000023FB817B681B7801337B617B69043B06
:102290007A6813441B683B613A6902217868FFF74A
:1022A0007FFF0346002B11D0022000F0FBF80A4B01
:1022B0001B689BB2C3F30B039BB2FB8107F10E03B8
:1022C000022219460548FFF7B9FA01E000F000F9CB
:1022D00000BF1837BD4680BD002004E090020020FA
:1022E00080B483B000AF0023FB71054B3B603B68BB
:1022F0001B68FB71FB7918460C37BD4680BC7047E4
:1023000000F8FF1F80B586B000AF78600023FB7334
:102310007B681B7801337B617B69043B7A681344DB
:102320001B683B613A6902217868FFF739FF034671
:10233000002B0ED0012000F0B5F8FFF7D1FF0346C7
:10234000FB7307F10F03012219460548FFF776FAE0
:1023500001E000F0BDF800BF1837BD4680BD00BFEA
:102360009002002080B483B000AF78607B68B3F146
:10237000006F05D37B68054A934201D80023FFE72D
:1023800018460C37BD4680BC704700BFFFFF0108F0
:1023900080B588B000AF78600023FB610023FB723A
:1023A0000023BB617B681B7801337B617B69043B45
:1023B0007A6813441B683B617B69043B3A691946A0
:1023C0007868FFF7EDFE0346002B27D0012000F0D0
:1023D00069F87B68D3F80230FB61F869FFF7C2FF48
:1023E0000346002B1ED107F10B03012219460F48AB
:1023F000FFF724FAFB690E4A934212D1FB691B686E
:10240000BB61B869FFF770FE0A4AFB699360FB691C
:1024100004331B68FB60FB68984703E000F058F842
:1024200000E000BF00BF2037BD4680BD9002002005
:102430000040000800ED00E080B586B000AF786095
:102440000023FB737B681B7801337B617B69043B52
:102450007A6813441B683B617B69043B3A691946FF
:102460007868FFF79DFE0346002B12D0012000F094
:1024700019F87B6802331B781846FFF7C7FD03463F
:10248000FB7307F10F03012219460548FFF7D6F940
:1024900001E000F01DF800BF1837BD4680BD00BF49
:1024A0009002002080B584B000AF7860A5233B7314
:1024B0007B68DBB27B7307F10C03022219460348E9
:1024C000FFF7BCF900BF1037BD4680BD9002002069
:1024D00080B582B000AF7F23FB71FB1D012219463E
:1024E0000348FFF7ABF900BF0837BD4680BD00BF0A
:1024F0009002002080B400AF50231846BD4680BC37
:102500007047000080B582B000AFFFF76DFC10206F
:10251000FEF7FEFF0346002B0CD1FFF7F1FD002371
:102520007B6002E07B6801337B607B68034A9342F7
:10253000F8D9ECE7FFF7AEFDE9E700BF9F860100A1
:1025400080B586B000AF7860144A154BD31A7B6112
:102550007B693B61134B1B68002B02D1114B124A64
:102560001A60104B1A687B6813443A699A4207D282
:1025700000F066F803460C221A604FF0FF3309E0C2
:10258000084B1B68FB60074B1A687B681344054ABD
:102590001360FB6818461837BD4680BD0050002008
:1025A00000040000A0030020F00400200D48854630
:1025B000AFF300800C480D490D4A002302E0D458C7
:1025C000C4500433C4188C42F9D30A4A0A4C00237D
:1025D00001E013600432A242FBD300F037F8FFF7AA
:1025E00091FFFEE7005000200000002020010020A5
:1025F000D82F000820010020EC040020FEE7000096
:1026000000B59BB0009104916FF0004105910291DB
:1026100005490391694600F091F90022009B1A7068
:102620001BB05DF804FB00BF0802FFFF13460A461B
:10263000014602480068FFF7E3BF00BFD00000205A
:10264000014B1868704700BFD000002070B500260D
:102650000C4D0D4C641BA410A64209D100F078FC6F
:1026600000260A4D0A4C641BA410A64205D170BD79
:1026700055F8043B98470136EEE755F8043B984778
:102680000136F2E7D02F0008D02F0008D02F000825
:10269000D42F00087047704738B50546002940D050
:1026A00051F8043C0C1F002BB8BFE41800F0DEF812
:1026B0001C4A136833B9636014602846BDE838408B
:1026C00000F0DAB8A34208D9206821188B4201BF74
:1026D00019685B6809182160EDE71A465B680BB161
:1026E000A342FAD911685018A0420BD120680144C6
:1026F000501883421160E0D118685B68084410608C
:102700005360DAE702D90C232B60D6E72068211842
:102710008B4201BF19685B680918216063605460CF
:10272000CBE738BDE804002070B50F4E0C46316889
:10273000054611B900F0AAFB30602146284600F09A
:10274000A5FB431C03D14FF0FF34204670BDC41CD1
:1027500024F00304A042F8D0211A284600F096FB8A
:102760000130F2D1EFE700BFE40400202DE9F84387
:10277000CD1C25F0030508350C2D38BF0C25002D88
:10278000064601DBA94204D90C2333600020BDE8D2
:10279000F883DFF8D48000F069F8D8F800301C46E0
:1027A00044BB29463046FFF7BFFF431C044658D1BF
:1027B000D8F800402746002F43D1002C4BD0236887
:1027C0003946304604EB030900F060FB814542D1F5
:1027D000216830466D1A2946FFF7A6FF01303AD02E
:1027E00023682B442360D8F800305A6862BBC8F8CD
:1027F00000700FE02268521B20D40B2A17D96119F0
:10280000A342256018BF5960636808BFC8F800106C
:1028100062514B60304600F02FF804F10B00231D8D
:1028200020F00700C21A1CBF1B1AA350AFE7626852
:10283000A3420CBFC8F800205A60EBE72346646847
:10284000AEE73C467F68B6E71A465B68A342FBD119
:1028500000235360DEE70C233046336000F00CF8B1
:1028600094E70560D6E700BFE80400200148FFF7C1
:1028700011BF00BFE00400200148FFF70CBF00BFFC
:10288000E00400202DE9F0471F468E688246BE42D4
:102890000C4690460B682DD8B1F90C2012F4906FBD
:1028A00026D06569096905EB4505A3EB010905EB30
:1028B000D5757B1C4B446D109D4238BF1D4653059A
:1028C00027D52946FFF752FF064660B34A462169DD
:1028D00000F0FAFAA38923F4906343F08003A38104
:1028E00026614E4426603E466561A5EB0905A5605C
:1028F000BE4200D93E4632464146206800F0ACFA5E
:102900000020A3689B1BA360236833442360BDE8B9
:10291000F0872A4600F0E6FA06460028E0D1504645
:102920002169FFF7B9FE0C23CAF80030A3894FF0E4
:10293000FF3043F04003A381E9E700002DE9F04FA9
:1029400098468B8907461B060D4614469DB010D548
:102950000B6973B94021FFF709FF2860286130B97E
:102960000C233B604FF0FF301DB0BDE8F08F4023DB
:102970006B610023099320238DF8293030234FF019
:102980000109CDF80C80DFF898818DF82A302346B4
:102990009A4613F8012B0AB1252AF9D1BAEB040B98
:1029A0000BD05B46224629463846FFF76BFF0130C5
:1029B00000F0A780099A5A4409929AF80030002B37
:1029C00000F09F8000234FF0FF32CDE905230AF18C
:1029D000010A049307938DF853301A935446052245
:1029E00014F8011B4E4800F061FA049AD8B9D006D9
:1029F00044BF20238DF85330110744BF2B238DF89B
:102A000053309AF800302A2B15D0544600204FF04E
:102A10000A0C079A214611F8013B303B092B4BD990
:102A2000B0B1079214E0A0EB080309FA03F31343D3
:102A3000A2460493D2E7039B191D1B680391002B48
:102A4000BBBF5B4242F0020207930793B8BF0492F8
:102A500023782E2B0AD163782A2B32D1039B0234A0
:102A60001A1D1B68039243EAE3730593DFF8B4A0D1
:102A700003225046217800F019FA38B14022049B15
:102A8000A0EB0A00824013430134049314F8011BA5
:102A9000062225488DF8281000F008FA002836D0C4
:102AA000224B1BBB039B073323F00703083303931D
:102AB000099B334409936AE70C4601200CFB023260
:102AC000A8E700234FF00A0C19460134059320466D
:102AD00010F8012B303A092A03D9002BC6D00591F2
:102AE000C4E7044601230CFB0121F0E703AB00938C
:102AF0002A4638460E4B04A9AFF30080421C064616
:102B0000D6D1AB895B063FF52DAF09982CE703AB17
:102B100000932A463846064B04A900F07DF8EDE7FD
:102B20009A2F0008A02F0008A42F00080000000022
:102B3000852800082DE9F047164698468A680B69F3
:102B400007469342B8BF1346336091F843200C46C2
:102B5000DDF820900AB1013333602368990642BF43
:102B6000336802333360256815F0060506D104F199
:102B7000190AE36832689B1AAB422BDC94F84330A5
:102B80002268003B18BF0123920630D441463846E4
:102B900004F14302C847013023D02368226903F0BF
:102BA0000603042B14BF002533684FF0000608BF4E
:102BB000E56804F11A0408BFED1A54F8123C08BF86
:102BC00025EAE5759342C4BF9B1AED18B5421AD1A8
:102BD000002008E00123524641463846C8470130EC
:102BE00003D14FF0FF30BDE8F0870135C1E7302059
:102BF000E11881F843005A1C94F84510224402332E
:102C000082F84310C2E70123224641463846C847AE
:102C10000130E6D00136D9E72DE9FF470F7E914616
:102C2000782F80460C469A460C9E01F1430207D845
:102C3000622F0AD8002F00F0D380582F00F0BA80FE
:102C400004F1420684F842703AE0A7F16303152BC1
:102C5000F6D801A151F823F0B12C0008C52C0008CA
:102C6000412C0008412C0008412C0008412C000890
:102C7000C52C0008412C0008412C0008412C0008FC
:102C8000412C0008C72D0008EF2C0008812D0008FA
:102C9000412C0008412C0008E92D0008412C0008B7
:102CA000EF2C0008412C0008412C0008892D000859
:102CB00033681A1D1B68326004F1420684F8423002
:102CC00001239EE033682068191D3160060601D596
:102CD0001D6803E04506FBD5B3F90050002D03DA6B
:102CE0002D236D4284F843300A23594811E02168AE
:102CF0003368080653F8045B02D4490648BFADB2F6
:102D00006F2F336014BF0A2308235148002184F831
:102D100043106668002EA8BF2168A660A4BF21F0FA
:102D2000040121600DB9002E4BD01646B5FBF3F11E
:102D300003FB1157C75D06F8017D2F46BB420D46C8
:102D4000F4D9082B0BD12368DF0708D52369616804
:102D50009942DEBF302306F8013C06F1FF36921B94
:102D600022614B4621464046CDF800A003AAFFF75A
:102D7000E1FE01304AD14FF0FF3004B0BDE8F087EA
:102D8000236843F0200323607827324884F8457095
:102D9000236831681F0651F8045B02D45F0648BF00
:102DA000ADB23160D90744BF43F0200323601DB1A9
:102DB0001023ABE72648E9E7236823F020032360CC
:102DC000F6E71646BDE733682568181D616930606F
:102DD0002E061B6801D5196002E06806FBD5198034
:102DE000002316462361BCE7336800211A1D3260B8
:102DF0001E686268304600F059F808B1801B6060B8
:102E000063682361002384F84330AAE732464946C9
:102E100040462369D0470130ADD023689B0713D4C7
:102E2000E068039B9842B8BF1846A6E701233246E4
:102E300049464046D04701309DD00135E3680399AB
:102E40005B1AAB42F2DCEBE7002504F11906F5E76B
:102E5000AB2F0008BC2F0008884210B501EB02041C
:102E600002D98442234607D8431EA14208D011F854
:102E7000012B03F8012FF8E7014602448A4200D1F2
:102E800010BD13F8014D02F8014DF7E738B50023E6
:102E9000054D044608462B60FFF752FB431C02D148
:102EA0002B6803B1236038BDDC040020034610B555
:102EB000C9B202449342184601D1002003E00478CD
:102EC00001338C42F6D110BD0A44914200F1FF3328
:102ED00000D1704710B511F8014B914203F8014F32
:102EE000F9D110BD2DE9F041804615460C4621B9B7
:102EF0001146BDE8F041FFF739BC2AB9FFF7CCFB1A
:102F000000242046BDE8F08100F01AF8854206460C
:102F100002D8B5EB500FF4D829464046FFF726FCFF
:102F200007460028ECD0B5422A46214628BF324643
:102F3000FFF7CAFF21464046FFF7AEFB3C46E0E7FD
:102F400051F8043C181F002BBCBF0B58C018704729
:102F5000F8B500BFF8BC08BC9E467047F8B500BF86
:082F6000F8BC08BC9E46704756
:102F68006170706C69636174696F6E206D73703A1B
:102F7800202578200D0A0000726573657420686149
:102F88006E646C657220616464723A202578200D45
:102F98000A00232D302B2000686C4C0065666745BD
:102FA80046470030313233343536373839414243B9
:102FB800444546003031323334353637383961626A
:082FC80063646566000000006F
:042FD000550100089F
:042FD40031010008BF
:102FD800000A0000000000000000002002000400B9
:102FE80008001000400080000001000202000400F8
:102FF8000800100002030405060708090A0B0C0D57
:103008000E0F10100000020000000302020001026F
:103018000100000302000002010302000302020093
:103028000201010002000201030200010002010086
:103038000201000200020101000201000201000277
:103048000100020100020002010002010002010069
:103058000201030300030300000201000201010052
:10306800000100000100020100020100020100024B
:103078000100020100020100020100020100020138
:10308800000201000201000201000201000001002B
:10309800020000005152535455565758595A5B5C18
:1030A800D400002000000000A40300200C0400202D
:1030B8007404002000000000000000000000000070
:1030C80000000000000000000000000000000000F8
:1030D80000000000000000000000000000000000E8
:1030E80000000000000000000000000000000000D8
:04000005080025AD1D
:00000001FF
