:020000040800F2
:1000000000500020812A0008D12A0008D12A0008C7
:10001000D12A0008D12A0008D12A000800000000D7
:10002000000000000000000000000000D12A0008CD
:10003000D12A000800000000D12A0008D1150008CC
:10004000D12A0008D12A0008D12A0008D12A0008A4
:10005000D12A0008D12A0008D12A0008D12A000894
:10006000D12A0008D12A000855150008D12A000815
:10007000D12A0008D12A0008D12A0008D12A000874
:10008000D12A0008D12A0008D12A0008D12A000864
:10009000D12A0008D12A0008D12A0008D12A000854
:1000A000D12A0008D12A0008D12A0008D12A000844
:1000B000D12A0008D12A0008D12A0008D12A000834
:1000C000D12A0008D12A0008D12A0008D12A000824
:1000D000D12A0008D12A0008FD1D0008D12A0008F5
:1000E000D12A0008D12A000800000000D12A000807
:1000F000D12A0008D12A0008D12A0008D12A0008F4
:10010000D12A0008D12A0008D12A0008D12A0008E3
:10011000D12A0008D12A0008D12A0008D12A0008D3
:10012000D12A0008D12A0008D12A0008D12A0008C3
:1001300010B5054C237833B9044B13B10448AFF321
:1001400000800123237010BDCC00002000000000BF
:100150001C2B000808B5034B1BB103490348AFF340
:10016000008008BD00000000D00000201C2B00080B
:100170004FF0FF0C1CEAD0521EBF1CEAD15392EA8A
:100180000C0F93EA0C0F6FD01A4480EA010C400266
:1001900018BF5FEA41211ED04FF0006343EA5010C0
:1001A00043EA5111A0FB01310CF00040B1F5000F02
:1001B0003EBF490041EAD3715B0040EA010062F1B1
:1001C0007F02FD2A1DD8B3F1004F40EBC25008BF9B
:1001D00020F00100704790F0000F0CF0004C08BFB9
:1001E00049024CEA502040EA51207F3AC2BFD2F186
:1001F000FF0340EAC250704740F400004FF0000394
:10020000013A5DDC12F1190FDCBF00F000407047CD
:10021000C2F10002410021FA02F1C2F1200200FA0B
:1002200002FC5FEA310040F1000053EA4C0308BFD2
:1002300020EADC70704792F0000F00F0004C02BF23
:10024000400010F4000F013AF9D040EA0C0093F09E
:10025000000F01F0004C02BF490011F4000F013BF8
:10026000F9D041EA0C018FE70CEAD15392EA0C0F66
:1002700018BF93EA0C0F0AD030F0004C18BF31F0D1
:10028000004CD8D180EA010000F00040704790F0A7
:10029000000F17BF90F0004F084691F0000F91F04B
:1002A000004F14D092EA0C0F01D142020FD193EA11
:1002B0000C0F03D14B0218BF084608D180EA010099
:1002C00000F0004040F0FE4040F40000704740F075
:1002D000FE4040F44000704781F0004102E000BF62
:1002E00083F0004330B54FEA41044FEA430594EAF6
:1002F000050F08BF90EA020F1FBF54EA000C55EA31
:10030000020C7FEA645C7FEA655C00F0E2804FEA01
:100310005454D4EB5555B8BF6D420CDD2C4480EAE3
:10032000020281EA030382EA000083EA010180EA13
:10033000020281EA0303362D88BF30BD11F0004F61
:100340004FEA01314FF4801C4CEA113102D0404297
:1003500061EB410113F0004F4FEA03334CEA1333D2
:1003600002D0524263EB430394EA050F00F0A780EA
:10037000A4F10104D5F1200E0DDB02FA0EFC22FAE5
:1003800005F2801841F1000103FA0EF2801843FAD9
:1003900005F359410EE0A5F120050EF1200E012ACA
:1003A00003FA0EFC28BF4CF0020C43FA05F3C01808
:1003B00051EBE37101F0004507D54FF0000EDCF181
:1003C000000C7EEB00006EEB0101B1F5801F1BD32A
:1003D000B1F5001F0CD349085FEA30004FEA3C0C2E
:1003E00004F101044FEA445212F5800F80F09A8024
:1003F000BCF1004F08BF5FEA500C50F1000041EB28
:10040000045141EA050130BD5FEA4C0C404141EB2B
:100410000101013C28BFB1F5801FE9D291F0000F26
:1004200004BF01460020B1FA81F308BF2033A3F1D5
:100430000B03B3F120020CDA0C3208DD02F1140CCC
:10044000C2F10C0201FA0CF021FA02F10CE002F107
:100450001402D8BFC2F1200C01FA02F120FA0CFC00
:10046000DCBF41EA0C019040E41AA2BF01EB045149
:10047000294330BD6FEA04041F3C1CDA0C340EDC47
:1004800004F11404C4F1200220FA04F001FA02F38A
:1004900040EA030021FA04F345EA030130BDC4F148
:1004A0000C04C4F1200220FA02F001FA04F340EA3D
:1004B0000300294630BD21FA04F0294630BD94F0EE
:1004C000000F83F4801306BF81F480110134013DD5
:1004D0004EE77FEA645C18BF7FEA655C29D094EA46
:1004E000050F08BF90EA020F05D054EA000C04BFC4
:1004F0001946104630BD91EA030F1EBF00210020AF
:1005000030BD5FEA545C05D14000494128BF41F04D
:10051000004130BD14F580043CBF01F5801130BDB1
:1005200001F0004545F0FE4141F470014FF000003C
:1005300030BD7FEA645C1ABF194610467FEA655CED
:100540001CBF0B46024650EA013406BF52EA03358F
:1005500091EA030F41F4002130BD00BF90F0000F7D
:1005600004BF0021704730B54FF4806404F13204B9
:100570004FF000054FF0000150E700BF90F0000F72
:1005800004BF0021704730B54FF4806404F1320499
:1005900010F0004548BF40424FF000013EE700BF69
:1005A00042004FEAE2014FEA31014FEA02701FBFF9
:1005B00012F07F4393F07F4F81F06051704732F02B
:1005C0007F4208BF704793F07F4F04BF41F4002182
:1005D000704730B54FF4607401F0004521F00041E0
:1005E0001CE700BF50EA010208BF704730B54FF06A
:1005F00000050AE050EA010208BF704730B511F06B
:10060000004502D5404261EB41014FF4806404F1A2
:1006100032045FEA915C3FF4D8AE4FF003025FEA28
:10062000DC0C18BF03325FEADC0C18BF033202EBAC
:10063000DC02C2F1200300FA03FC20FA02F001FA06
:1006400003FE40EA0E0021FA02F11444BDE600BFA9
:1006500070B54FF0FF0C4CF4E06C1CEA11541DBF58
:100660001CEA135594EA0C0F95EA0C0F00F0DEF823
:100670002C4481EA030621EA4C5123EA4C5350EA08
:10068000013518BF52EA033541F4801143F4801359
:1006900038D0A0FB02CE4FF00005E1FB02E506F0EA
:1006A0000042E0FB03E54FF00006E1FB03569CF03F
:1006B000000F18BF4EF0010EA4F1FF04B6F5007F45
:1006C00064F5407404D25FEA4E0E6D4146EB0606B7
:1006D00042EAC62141EA55514FEAC52040EA5E5040
:1006E0004FEACE2EB4F1FD0C88BFBCF5E06F1ED8EA
:1006F000BEF1004F08BF5FEA500E50F1000041EB21
:10070000045170BD06F0004646EA010140EA0200CD
:1007100081EA0301B4EB5C04C2BFD4EB0C0541EAEF
:10072000045170BD41F480114FF0000E013C00F304
:10073000AB8014F1360FDEBF002001F0004170BD28
:10074000C4F10004203C35DA0C341BDC04F1140441
:10075000C4F1200500FA05F320FA04F001FA05F2CD
:1007600040EA020001F0004221F0004110EBD3709A
:1007700021FA04F642EB06015EEA430E08BF20EAC6
:10078000D37070BDC4F10C04C4F1200500FA04F369
:1007900020FA05F001FA04F240EA020001F00041FB
:1007A00010EBD37041F100015EEA430E08BF20EA6E
:1007B000D37070BDC4F1200500FA05F24EEA020EB6
:1007C00020FA04F301FA05F243EA020321FA04F0E5
:1007D00001F0004121FA04F220EA020000EBD3709C
:1007E0005EEA430E08BF20EAD37070BD94F0000F9C
:1007F0000FD101F00046400041EB010111F4801FD0
:1008000008BF013CF7D041EA060195F0000F18BF80
:10081000704703F00046520043EB030313F4801FBC
:1008200008BF013DF7D043EA0603704794EA0C0F76
:100830000CEA135518BF95EA0C0F0CD050EA41068C
:1008400018BF52EA4306D1D181EA030101F0004109
:100850004FF0000070BD50EA410606BF1046194631
:1008600052EA430619D094EA0C0F02D150EA01363D
:1008700013D195EA0C0F05D152EA03361CBF10467E
:1008800019460AD181EA030101F0004141F0FE411D
:1008900041F470014FF0000070BD41F0FE4141F4A1
:1008A000780170BD70B54FF0FF0C4CF4E06C1CEAA1
:1008B00011541DBF1CEA135594EA0C0F95EA0C0F56
:1008C00000F0A7F8A4EB050481EA030E52EA033511
:1008D0004FEA013100F088804FEA03334FF0805532
:1008E00045EA131343EA12634FEA022245EA11155F
:1008F00045EA10654FEA00260EF000419D4208BF10
:10090000964244F1FD0404F5407402D25B084FEABC
:100910003202B61A65EB03055B084FEA32024FF468
:1009200080104FF4002CB6EB020E75EB030E22BFC5
:10093000B61A754640EA0C005B084FEA3202B6EB85
:10094000020E75EB030E22BFB61A754640EA5C0034
:100950005B084FEA3202B6EB020E75EB030E22BFC4
:10096000B61A754640EA9C005B084FEA3202B6EBC5
:10097000020E75EB030E22BFB61A754640EADC0084
:1009800055EA060E18D04FEA051545EA16754FEAE6
:1009900006164FEAC30343EA52734FEAC2025FEA04
:1009A0001C1CC0D111F4801F0BD141EA00014FF093
:1009B00000004FF0004CB6E711F4801F04BF014364
:1009C0000020B4F1FD0C88BFBCF5E06F3FF6AFAE80
:1009D000B5EB030C04BFB6EB020C5FEA500C50F110
:1009E000000041EB045170BD0EF0004E4EEA113193
:1009F00014EB5C04C2BFD4EB0C0541EA045170BD9A
:100A000041F480114FF0000E013C90E645EA060EDD
:100A10008DE60CEA135594EA0C0F08BF95EA0C0F0B
:100A20003FF43BAF94EA0C0F0AD150EA01347FF453
:100A300034AF95EA0C0F7FF425AF104619462CE72A
:100A400095EA0C0F06D152EA03353FF4FDAE10468D
:100A5000194622E750EA410618BF52EA43067FF4DE
:100A6000C5AE50EA41047FF40DAF52EA43057FF46E
:100A7000EBAE12E74FEA4102B2F1E04324BFB3F517
:100A8000001CDCF1FE5C0DD901F0004C4FEAC00205
:100A90004CEA5070B2F1004F40EB830008BF20F0E9
:100AA0000100704711F0804F21D113F13872BCBFA3
:100AB00001F00040704741F480114FEA5252C2F1F8
:100AC0001802C2F1200C10FA0CF320FA02F018BF41
:100AD00040F001004FEAC1234FEAD32303FA0CFC94
:100AE00040EA0C0023FA02F34FEA4303CCE77FEA23
:100AF000625307D150EA01331EBF4FF0FE4040F46D
:100B00004000704701F0004040F0FE4040F400001B
:100B1000704700BF80F0004002E000BF81F000415C
:100B200042001FBF5FEA410392EA030F7FEA226C93
:100B30007FEA236C6AD04FEA1262D2EB1363C1BF23
:100B4000D218414048404140B8BF5B42192B88BF92
:100B5000704710F0004F40F4000020F07F4018BFB5
:100B6000404211F0004F41F4000121F07F4118BFD5
:100B7000494292EA030F3FD0A2F1010241FA03FC7D
:100B800010EB0C00C3F1200301FA03F100F0004365
:100B900002D5494260EB4000B0F5000F13D3B0F12D
:100BA000807F06D340084FEA310102F10102FE2A9C
:100BB00051D2B1F1004F40EBC25008BF20F001000C
:100BC00040EA03007047490040EB0000013A28BFAB
:100BD000B0F5000FEDD2B0FA80FCACF1080CB2EB2E
:100BE0000C0200FA0CF0AABF00EBC25052421843AC
:100BF000BCBFD0401843704792F0000F81F4000151
:100C000006BF80F400000132013BB5E74FEA410323
:100C10007FEA226C18BF7FEA236C21D092EA030F8F
:100C200004D092F0000F08BF0846704790EA010F09
:100C30001CBF0020704712F07F4F04D1400028BF36
:100C400040F00040704712F100723CBF00F5000018
:100C5000704700F0004343F0FE4040F4000070474E
:100C60007FEA226216BF08467FEA236301464202FA
:100C700006BF5FEA412390EA010F40F4800070470D
:100C80004FF0000304E000BF10F0004348BF4042B3
:100C90005FEA000C08BF704743F0964301464FF0EF
:100CA00000001CE050EA010208BF70474FF000034B
:100CB0000AE000BF50EA010208BF704711F000438C
:100CC00002D5404261EB41015FEA010C02BF84465C
:100CD0000146002043F0B64308BFA3F18053A3F5BB
:100CE0000003BCFA8CF2083AA3EBC25310DB01FA02
:100CF00002FC634400FA02FCC2F12002BCF1004F86
:100D000020FA02F243EB020008BF20F00100704716
:100D100002F1200201FA02FCC2F1200250EA4C006A
:100D200021FA02F243EB020008BF20EADC707047B0
:100D30004FF0FF3C06E000BF4FF0010C02E000BFA7
:100D40004FF0010C4DF804CD4FEA40024FEA410349
:100D50007FEA226C18BF7FEA236C11D001B052EAFF
:100D6000530C18BF90EA010F58BFB2EB030088BFC5
:100D7000C81738BF6FEAE17018BF40F00100704734
:100D80007FEA226C02D15FEA402C05D17FEA236C16
:100D9000E4D15FEA412CE1D05DF8040B704700BF5D
:100DA000844608466146FFE70FB5FFF7C9FF0028F4
:100DB00048BF10F1000F0FBD4DF808EDFFF7F4FF2D
:100DC0000CBF012000205DF808FB00BF4DF808EDC6
:100DD000FFF7EAFF34BF012000205DF808FB00BFE9
:100DE0004DF808EDFFF7E0FF94BF012000205DF80B
:100DF00008FB00BF4DF808EDFFF7D2FF94BF0120BC
:100E000000205DF808FB00BF4DF808EDFFF7C8FFB4
:100E100034BF012000205DF808FB00BF4FEA40020C
:100E2000B2F1FE4F0FD34FF09E03B3EB12620DD918
:100E30004FEA002343F0004310F0004F23FA02F082
:100E400018BF404270474FF00000704712F1610F29
:100E500001D1420205D110F0004008BF6FF0004000
:100E600070474FF00000704742000ED2B2F1FE4FC3
:100E70000BD34FF09E03B3EB126209D44FEA002369
:100E800043F0004323FA02F070474FF00000704730
:100E900012F1610F01D1420202D14FF0FF307047D1
:100EA0004FF00000704700BF80B500AF174B1B68C4
:100EB000DB78184600F0C2F8144B1B681B79184603
:100EC00000F0D6F8114B1B685B79184600F0EAF881
:100ED0000E4B1B689A780D4B1B685B7819461046C1
:100EE00000F082F8094B1B681B78184600F012F8D6
:100EF000012000F015F941F61D2000F0EDF804483E
:100F000000F0FCF800F0D4F900BF80BD080000201C
:100F10000000420280B485B000AF0346FB7100239D
:100F2000FB73FB79012B1FD12E4B1B682D4A43F419
:100F30008033136000BF2B4B1B6803F40033002B7E
:100F4000F9D0284B5B68274A23F003035360254BF5
:100F50005B68244A43F001035360224B1B68214A1B
:100F600023F00103136037E0FB79002B17D11D4BF1
:100F70001B681C4A43F00103136000BF194B1B6838
:100F800003F00203002BF9D0164B5B68154A23F0DF
:100F900003035360134B134A5B6853601CE0FB79F7
:100FA000022B19D10F4B1B680E4A43F0807313605C
:100FB00000BF0C4B1B6803F00073002BF9D0094BEA
:100FC0005B68084A43F00203536000BF054B5B684F
:100FD00003F00C03082BF9D1FB7B18461437BD46F0
:100FE00080BC70470010024080B483B000AF03465D
:100FF0000A46FB711346BB710F4B5B680E4A23F424
:10100000701353600C4B5A68BB799B040A49134315
:101010004B60094B5B68084A23F480335360064BEE
:101020005A68FB79044913434B60012318460C3777
:10103000BD4680BC704700BF0010024080B483B042
:1010400000AF0346FB71094B5B68084A23F0F003CD
:101050005360064B5A68FB791B01044913434B60EC
:1010600000BF0C37BD4680BC704700BF0010024077
:1010700080B483B000AF0346FB71094B5B68084A3C
:1010800023F4E0635360064B5A68FB791B02044962
:1010900013434B6000BF0C37BD4680BC704700BF98
:1010A0000010024080B483B000AF0346FB71094BCF
:1010B0005B68084A23F4F0435360064B5A68FB7997
:1010C000DB02044913434B6000BF0C37BD4680BCB4
:1010D000704700BF0010024080B483B000AF78605A
:1010E000054B9A6904497B6813438B6100BF0C3739
:1010F000BD4680BC704700BF0010024080B483B082
:1011000000AF7860054BDA6904497B681343CB6113
:1011100000BF0C37BD4680BC704700BF00100240C6
:1011200080B483B000AF7860054B5A6904497B688E
:1011300013434B6100BF0C37BD4680BC704700BFF6
:101140000010024080B588B000AF0346FB71334BFE
:101150005B689B08DBB203F00303FB74FB7C002B92
:1011600002D12F4BFB6111E0FB7C012B02D12C4BF8
:10117000FB610BE0FB7C022B03D100F057F8F86118
:1011800004E0FB7C032B01D10123FB61234B5B6853
:101190001B0903F00F03FB60FB68072B02D8012338
:1011A000BB6105E0FB68083B1E4A32F81330BB61A7
:1011B000FB79012B11D1194B5B681B0A03F0070364
:1011C000FB60FB68032B02D801237B6105E0FB6811
:1011D000043B154A32F813307B61FB79022B11D1A5
:1011E0000E4B5B68DB0A03F00703FB60FB68032B15
:1011F00002D801237B6105E0FB68043B0A4A32F810
:1012000013307B61FA69BB69B2FBF3F27B69B2FB15
:10121000F3F318462037BD4680BD00BF00100240E2
:1012200000127A000C0000201C00002080B485B061
:1012300000AF1B4B5B681B0CDBB203F00103FB72BE
:10124000174B5B689B0C03F00F037B60144B5B68D0
:101250005B0C03F001033B600023FB60FB7A002B77
:1012600009D1104A7B6813441B781A460E4B02FBC7
:1012700003F3FB600EE0FB7A012B0BD13B680133DB
:101280000A4AB2FBF3F307497A680A44127802FB70
:1012900003F3FB60FB6818461437BD4680BC7047FB
:1012A000001002402400002000093D0000127A00D6
:1012B00080B400AF084B5B6A074A43F001035362F6
:1012C00000BF054B5B6A03F00203002BF9D000BF9F
:1012D00000BFBD4680BC70470010024080B483B0A0
:1012E00000AF0346FB71FB791B09DBB203F003037C
:1012F000DBB218460C37BD4680BC704780B483B063
:1013000000AF0346FB71FB7903F00F03DBB2184615
:101310000C37BD4680BC704780B582B000AF022359
:10132000FB710DE0FA7913465B001344084A1A4436
:10133000FB791146184600F00DF8FB790133FB717B
:10134000FB79302BEED900BF00BF0837BD4680BD0A
:101350003400002080B582B000AF03463960FB71D5
:101360003B6819783B685A783B689B78F87900F0BD
:1013700005F800BF0837BD4680BD000090B585B0B8
:1013800000AF0446084611461A462346FB71034641
:10139000BB710B467B7113463B71FB791846FFF717
:1013A000ADFF03461A463C4B1A70FB791846FFF70F
:1013B00095FF03469B0203F1804303F58433FB60F2
:1013C0007B79022B1BD13B79012B0AD1FB68DB68AF
:1013D000314A1278114601228A401A43FB68DA60CA
:1013E0000DE03B79002B0AD1FB68DB682A4A1278B2
:1013F000114601228A40D2431A40FB68DA60264B2C
:101400001B78072B1ED8FB681B68234A12789200B2
:101410000F2101FA02F2D2431A40FB681A60FB68FE
:101420001B68B9791C4A12789200914078791A4A5F
:1014300012789200023200FA02F20A431A43FB6861
:101440001A6024E0144B1B7803F00703DAB2124B46
:101450001A70FB685B68104A127892000F2101FA3B
:1014600002F2D2431A40FB685A60FB685B68B979A4
:10147000094A1278920091407879074A12789200CE
:10148000023200FA02F20A431A43FB685A6000BFB4
:101490001437BD4690BD00BFE900002080B584B080
:1014A00000AF03460A46FB711346BB71FB79184631
:1014B000FFF714FF03469B0203F1804303F58433D7
:1014C000FB60BB79002B10D0012B1DD1FB79184696
:1014D000FFF714FF03461A4601239340DA43FB68E3
:1014E000DB681A40FB68DA600EE0FB791846FFF70C
:1014F00005FF03461A46012303FA02F2FB68DB6884
:101500001A43FB68DA6000BF00BF1037BD4680BDDC
:1015100090B585B000AF0346FB71FB791846FFF725
:10152000DDFE03469B0203F1804303F58433FB6039
:10153000FB689B689CB2FB791846FFF7DFFE034609
:101540001A46012393409BB223409BB2184614379E
:10155000BD4690BD80B500AF104B5B6903F0100332
:10156000002B18D00D4B5B690C4A43F010035361FC
:101570000B4B1B78002B07D100212D20FFF78EFF8E
:10158000074B01221A7006E001212D20FFF786FF8C
:10159000034B00221A7000BF80BD00BF0004014051
:1015A000E800002080B400AF084B41F63F725A605B
:1015B000064B00229A60054B1B68044A43F0070360
:1015C000136000BFBD4680BC704700BF10E000E064
:1015D00080B400AF0D4B1B8801339AB20B4B1A80BD
:1015E0000B4B1B8801339AB2094B1A80094B1B889D
:1015F00001339AB2074B1A80074B1B680133064A26
:10160000136000BFBD4680BC704700BFEA000020E9
:10161000EC000020EE000020F000002080B400AFBD
:10162000024B1B681846BD4680BC7047F000002086
:1016300080B400AF034BDA680249034B1343CB601D
:1016400000BFFDE700ED00E00400FA0580B500AF43
:10165000104B114A1A600F4B02221A710D4B0022D7
:101660009A710C4B00225A710A4B4FF4E1329A6086
:10167000084B0022DA60074B084A5A61054B084ABA
:101680009A61044B08225A77024800F037F800BFED
:1016900080BD00BF3C02002000440040F400002058
:1016A0004401002080B500AF104B114A1A600F4B67
:1016B00002221A710D4B00229A710C4B00225A71B2
:1016C0000A4B4FF4E1329A60084B0022DA60074B74
:1016D000084A5A61054B084A9A61044B08225A7716
:1016E000024800F00BF800BF80BD00BF5C02002084
:1016F00000480040F40000204401002080B582B082
:1017000000AF78607B681A687B689B791946104641
:1017100000F08CF97B681A687B685B791946104683
:1017200000F09CF97B681A687B68DB68DBB21946BD
:10173000104600F0A5F97B681A687B681B7919468A
:10174000104600F0BBF97B681A687B689B681946F5
:10175000104600F01FF87B681A687B681B7C1946EE
:10176000104600F015FB7B681A687B685B7C1946A5
:10177000104600F00DFB7B681B68184600F047F927
:101780007B681B68184600F0F3FA00BF0837BD46B7
:1017900080BD0000B0B588B000AF7860396001202E
:1017A000FFF7D0FC78617869FEF7D8FE04460D4655
:1017B0003868FEF7D3FE4FF00002264BFEF748FFD5
:1017C00002460B4620462946FFF76CF802460B46B8
:1017D00010461946FFF74EF903463B613869FFF79B
:1017E0001DFB03461846FFF74FFA034619463869B2
:1017F000FFF794F90346FB60F9683869FFF78EF943
:1018000003461846FFF730FB0346FB614FF0834168
:10181000F868FEF7ADFC0346184600F007FBB86118
:10182000BB690F2B04D90023BB61FB690133FB614A
:101830007B689A68FB691B011A437B689A607B6826
:101840009A68BB691A437B689A6000BF2037BD461F
:10185000B0BD00BF0000304080B584B000AFF8607C
:10186000B9601346FB71FB68BA685A61FB68FA7984
:101870001A77F86800F004F800BF1037BD4680BD45
:1018800080B582B000AF78603DE000BF7B681B6828
:101890008021184600F03CF90346002BF6D07B6807
:1018A0005B79012B20D17B68DB68002B10D17B6832
:1018B0005B691A787B681B685A607B685B695A1C95
:1018C0007B685A617B685B695A1C7B685A611AE0C5
:1018D0007B685B691A787B681B685A607B685B6908
:1018E0005A1C7B685A610EE07B685B79002B0AD139
:1018F0007B685B691A787B681B685A607B685B69E8
:101900005A1C7B685A617B681B7F5A1ED1B27A6869
:101910001177002BB9D100BF7B681B6840211846A6
:1019200000F0F6F80346012BF6D100BF00BF0837E0
:10193000BD4680BD80B586B000AFF860B9603B6041
:101940001346FB80FFF76AFE78614AE0FB885A1E67
:10195000FA80002B3CD0FB685B79012B1DD1FB6822
:10196000DB68002B0FD1FB681B685B689BB2C3F37D
:1019700008039AB2BB681A80BB680133BB60BB68BE
:101980000133BB6024E0FB681B685B68DAB2BB68AC
:101990001A70BB680133BB601AE0FB685B79002BEF
:1019A00016D1FB68DB68002B09D1FB681B685B68FC
:1019B000DAB2BB681A70BB680133BB6008E0FB6831
:1019C0001B685B68DAB2BB681A70BB680133BB6026
:1019D000FB681B682021184600F09AF80346002B8C
:1019E000B4D1FFF71BFE02467B69D31A3A689A42CC
:1019F00002D9FB88002BEBD1FB88002B01D10123FE
:101A000001E0FB88DBB218461837BD4680BD80B4C4
:101A100083B000AF78607B68DB6843F400527B687A
:101A2000DA6000BF0C37BD4680BC704780B483B01D
:101A300000AF78600B46FB707B681B6923F4405253
:101A40007B681A617B681A69FB781B031A437B6801
:101A50001A6100BF0C37BD4680BC704780B483B0AC
:101A600000AF78600B46FB707B68DA68FB781B037D
:101A70001A437B68DA6000BF0C37BD4680BC7047F4
:101A800080B483B000AF78600B46FB70FB78012B0D
:101A900006D17B68DB6843F480627B68DA6008E02B
:101AA000FB78022B05D17B68DB6843F4C0627B685E
:101AB000DA6000BF0C37BD4680BC704780B483B08D
:101AC00000AF78600B46FB70FB78022B14D0022B22
:101AD00019DC002B02D0012B07D014E07B68DB68F7
:101AE00043F008027B68DA600DE07B68DB6843F056
:101AF00004027B68DA6006E07B68DB6843F00C0276
:101B00007B68DA60FFE700BF0C37BD4680BC7047DA
:101B100080B483B000AF78600B46FB707B681A68B6
:101B2000FB781340002B01D0012300E0002318466E
:101B30000C37BD4680BC704780B584B000AF78607C
:101B40007B681B6840211846FFF7E2FF0346012B24
:101B500028D17B685A697E4B1B78591CC8B27C49D6
:101B60000870194612787B4B5A547B685B691B7866
:101B7000002B17D17B681B68DA687B681B6822F032
:101B80008002DA607B681B68DA687B681B6822F079
:101B90004002DA607B681B68DA687B681B6822F0A9
:101BA0000802DA607B681B6880211846FFF7B0FFE7
:101BB0000346012B58D1684B1B780133DAB2664BD0
:101BC0001A707B685A69654B1B78591CC8B2634907
:101BD000087019461278624B5A547B685B691B780F
:101BE000002B39D07B685B79012B25D17B68DB68C2
:101BF000002B15D17B685B69FB60FB681B881A466C
:101C00007B681B68C2F308025A607B685B695A1CD8
:101C10007B685A617B685B695A1C7B685A6123E068
:101C20007B685B691A787B681B685A607B685B69B4
:101C30005A1C7B685A6117E07B685B79002B13D1D3
:101C40007B685B691A787B681B685A607B685B6994
:101C50005A1C7B685A6107E07B681B68DA687B68FE
:101C60001B6822F08002DA607B681B68202118461E
:101C7000FFF74EFF0346012B66D13A4B1B88013319
:101C80009AB2384B1A807B685B79012B25D17B682F
:101C9000DB68002B14D17B681B685B689AB27B6899
:101CA0009B69C2F3080292B21A807B689B695A1C36
:101CB0007B689A617B689B695A1C7B689A6133E0F8
:101CC0007B681B685A687B689B69D2B21A707B6814
:101CD0009B695A1C7B689A6126E07B685B79002BC4
:101CE00022D17B68DB68002B12D17B681B685A68A5
:101CF0007B689B69D2B21A707B689B695A1C7B68AF
:101D00009A617B685B7F013BDAB27B685A770BE0B4
:101D10007B681B685A687B689B69D2B21A707B68C3
:101D20009B695A1C7B689A617B685B7F002B0BD197
:101D30007B681B68DA687B681B6822F02002DA6027
:101D4000094B1B680948984700BF1037BD4680BD46
:101D5000E4010020940100207E02002038020020CF
:101D6000E80100207C0200208002002044010020C5
:101D700080B483B000AF78607B68DB6843F0040216
:101D80007B68DA6000BF0C37BD4680BC704700003E
:101D900080B483B000AF78600B46FB70FB78032BF8
:101DA00026D801A252F823F0B91D0008C71D00086B
:101DB000D51D0008E31D00087B685B6943F08002C5
:101DC0007B685A6114E07B685B6923F080027B6862
:101DD0005A610DE07B685B6943F040027B685A61A1
:101DE00006E07B685B6923F040027B685A6100BFB4
:101DF00000BF0C37BD4680BC704700BF80B500AF48
:101E00000248FFF799FE00BF80BD00BF3C020020E2
:101E100080B500AFFFF748F8FFF77EFAFFF716FC32
:101E2000FFF740FCFFF7BEFB00BF80BD80B586B06A
:101E300000AF78607868FEF7F1FF03463B61786891
:101E4000FEF7ECFF03461846FEF71EFF0346194651
:101E50007868FEF763FE0346FB604FF07C51F8683C
:101E6000FEF7B4FF0346002B02D00023FB7509E008
:101E70004FF07C51F868FEF7BDFF0346002B01D000
:101E80000123FB75FA7D3B69134418461837BD469C
:101E900080BD80B584B000AF7860FFF7BFFBF8600D
:101EA00000BFFFF7BBFB0246FB68D31A7A689A4271
:101EB000F7D200BF00BF1037BD4680BD80B487B0E9
:101EC00000AFF860B9607A60FB687B6105E07B6910
:101ED0005A1C7A61BA68D2B21A707B685A1E7A604C
:101EE000002BF4D100BF00BF1C37BD4680BC70473B
:101EF00080B485B000AF78600B46FB701346BB70B2
:101F0000FB78013BDB007A6822FA03F3FB73FB7B6F
:101F100018461437BD4680BC7047000080B584B0B9
:101F200000AF0346FB71FB7903F500339B02FB60B6
:101F3000194BDB6803F00103002B01D0012327E0DC
:101F400000F02CF8144B1B69134A43F00203136191
:101F5000114AFB685361104B1B690F4A43F0400361
:101F6000136100BF0C4BDB6803F00103002BF9D1B8
:101F700000BF094BDB6803F02003002BF9D0064BB0
:101F80001B69054A23F00203136100F03BF80223AA
:101F900018461037BD4680BD0020024080B400AF17
:101FA000044B054A5A60034B044A5A6000BFBD46C1
:101FB00080BC70470020024023016745AB89EFCD0C
:101FC00080B400AF044B054A9A60034B044A9A6000
:101FD00000BFBD4680BC704700200240230167451A
:101FE000AB89EFCD80B400AF054B1B6A002B01D14C
:101FF000012300E000231846BD4680BC704700BFA7
:102000000020024080B400AF044B1B69034A43F038
:102010008003136100BFBD4680BC704700200240B2
:1020200080B500AF174BDB6803F00103002B01D034
:10203000012324E0FFF7B2FF124B1B69114A43F062
:10204000040313610F4B1B690E4A43F040031361F5
:1020500000BF0C4BDB6803F00103002BF9D100BF7C
:10206000084BDB6803F02003002BF9D0054B1B69FC
:10207000044A23F002031361FFF7C4FF022318464A
:1020800080BD00BF0020024080B584B000AF034691
:102090003960FB803B68FB6000237B811C4BDB6865
:1020A00003F00103002B01D001232DE0FFF776FFA1
:1020B000174B1B69164A43F001031361FB68FA884A
:1020C0001A8000BF124BDB6803F00103002BF9D12B
:1020D0000F4BDB6803F02003002B05D00C4BDB68B3
:1020E0000B4A43F02003D360094B1B69084A23F0D5
:1020F00001031361FFF786FFFB681B88FA889A4289
:1021000001D1012300E0002318461037BD4680BDF1
:102110000020024080B483B000AF0C4B7B600023F2
:10212000FB700AE07B681A1D7A60FA781B68084920
:1021300041F82230FB780133FB70FB78032BF1D997
:1021400000BF00BF0C37BD4680BC704700F8FF1FC2
:102150008402002080B582B000AF264B7B60264B06
:10216000DB6803F00103002B01D001233DE0FFF702
:1021700015FFFFF725FF204B1B691F4A43F0200383
:1021800013611D4B1B691C4A43F04003136100BFE0
:10219000194BDB6803F00103002BF9D1164B1B69C7
:1021A000154A23F020031361134BDB6803F020036F
:1021B000002B05D0104BDB680F4A43F02003D3609F
:1021C000FFF720FF0023FB700BE07B681A1D7A608D
:1021D0001B68B3F1FF3F01D0012306E0FB78013318
:1021E000FB70FB78032BF0D9002318460837BD4657
:1021F00080BD00BF00F8FF1F0020024090B587B0EF
:1022000000AF78603960514B7B613B68FB60002315
:102210007B817B68DBB29B087B724D4BDB6803F0F4
:102220000103002B40F08D80FFF7B8FEFFF7C8FEDA
:10223000474B1B69464A43F0100313610023FB74AC
:102240007BE07A7AFB7C9A423ED0FB7C414A52F892
:102250002330012202211846FFF74AFE03461B02E3
:102260001CB2FB7C3B4A52F8233001220121184664
:10227000FFF73EFE03461BB223431BB27B817B6903
:102280009A1C7A617A891A80FB7C324A52F8233090
:10229000012204211846FFF72BFE03461B021CB245
:1022A000FB7C2C4A52F82330012203211846FFF709
:1022B0001FFE03461BB223431BB27B817B699A1C22
:1022C0007A617A891A8035E0FB681B680122022155
:1022D0001846FFF70DFE03461B021CB2FB681B6885
:1022E000012201211846FFF703FE03461BB22343D8
:1022F0001BB27B817B699A1C7A617A891A80FB68A0
:102300001B68012204211846FFF7F2FD03461B0259
:102310001CB2FB681B68012203211846FFF7E8FD89
:1023200003461BB223431BB27B817B699A1C7A61F3
:102330007A891A80FB7C0133FB74FB7C032B80D9E8
:1023400000E000BF1C37BD4690BD00BF00F8FF1F76
:10235000002002408402002080B586B000AF786083
:102360007B681B687B61786900F012F87B68043336
:102370001B683B613B69FB60044A7B689360FB68B8
:10238000984700BF1837BD4680BD00BF00ED00E094
:1023900080B483B000AF78607B6883F3088800BFA7
:1023A0000C37BD4680BC704780B500AFC822002105
:1023B0001C48FFF783FD4FF47A73022219491A482B
:1023C000FFF7B8FA174B1B78432B22D0432BEDDCD9
:1023D000312B22D0312BE9DC212B16D0212BE5DC4F
:1023E000022B0ED0022BE1DC002B02D0012B04D0FB
:1023F00017E00C4800F0F6F913E00A4800F0CCF9B9
:102400000FE0084800F024FA0BE0064800F056FA06
:1024100007E0044800F09AFA03E0024800F0DEF812
:1024200000BFC3E7980200203C02002080B586B0C0
:1024300000AFF860B9607A600023FB8200237B75EF
:1024400000233B612AE03B6901337A689A420FD945
:10245000FA683B6913441B781AB23B690133F96887
:102460000B441B781B021BB213431BB2FB8208E018
:10247000FA683B6913441B781BB263F0FF031BB27D
:10248000FB82BA683B691A44FB8A11461846FFF77B
:10249000FBFD03467B753B6902333B613A697B6810
:1024A0009A42D0D37B7D18461837BD4680BD80B494
:1024B00087B000AFF860B9607A60BB687B61FB6889
:1024C0001A687B691A607B691A68FB681B689A4204
:1024D00001D1012300E0002318461C37BD4680BC13
:1024E000704780B582B000AF78603960FFF712FEA8
:1024F000FFF730FE79683868FFF780FEFFF798F83D
:1025000000BF0837BD4680BD80B483B000AF78609F
:102510007B68002B01D100230BE07B681A787B6875
:1025200001331B785340DBB2FF2B01D1012300E0C4
:10253000002318460C37BD4680BC704780B500AFFD
:10254000FFF750FD0346184680BD000080B483B0FD
:1025500000AF78607B680F4A934208D37B680E4ACD
:10256000934204D80D4B01221A7001230DE07B68C1
:102570000B4A934208D37B680A4A934204D80A4B19
:1025800001221A70012300E0002318460C37BD46D3
:1025900080BC704700400008FFFF01089402002043
:1025A00000140020005000209502002080B483B069
:1025B00000AF78607B68074A934205D97B68064A7A
:1025C000934201D8012300E0002318460C37BD4692
:1025D00080BC7047FFF7FF1F0CF8FF1F80B584B069
:1025E00000AF78607B68002B05D07868FFF78CFF20
:1025F0000346002B01D1012399E0FFF79FFF03461B
:10260000002B01D0022392E0012000F0F7F94FF4F3
:102610007A73052279684848FFF78CF90346012B45
:1026200001D0042383E07B681B68FB600521786888
:1026300000F088F80346002B03D100F0F5F90323DE
:1026400075E0012000F0DAF94FF47A73012279681D
:102650003948FFF76FF90346012B01D0042366E0E8
:102660007B681B780133FB72FB7A9BB201339AB211
:102670004FF47A7379683048FFF75CF90346012B11
:1026800001D0042353E0FB7A0133DBB219467868AA
:1026900000F058F80346002B03D100F0C5F90323DE
:1026A00045E0F868FFF752FF0346002B2FD0234B7D
:1026B0001B78002B13D0214B00221A70FB7A1A468C
:1026C000F9687868FFF7B2FE0346012B03D10120B9
:1026D00000F094F92AE000F0A7F9062327E0184B50
:1026E0001B78002B22D0164B00221A70FB7A1A4658
:1026F000F9687868FFF7DBFE0346012B03D1012060
:1027000000F07CF912E000F08FF907230FE0F86881
:10271000FFF74CFF0346002B04D0F9687868FFF7F9
:10272000E0FE03E000F080F9082300E000231846F3
:102730001037BD4680BD00BF3C020020940200203F
:102740009502002080B485B000AF78600B46FB7026
:102750000023FB737B68002B01D1022316E00023CA
:10276000BB7309E0BB7B7A6813441A78FB7B534048
:10277000FB73BB7B0133BB73BA7BFB789A42F1D30B
:10278000FB7B002B01D1012300E000231846143706
:10279000BD4680BC7047000080B584B000AF786053
:1027A0006023FB737B68002B05D07868FFF7ACFED5
:1027B0000346002B01D101230DE0012000F01EF99A
:1027C00007F10F03012219460548FFF745F80120DC
:1027D00000F014F9002318461037BD4680BD00BF35
:1027E0003C02002080B584B000AF78600723FB7303
:1027F0006023BB737B68002B05D07868FFF784FEED
:102800000346002B01D101231AE0012000F0F6F865
:1028100007F10F03012219460B48FFF71DF807F1D6
:102820000E03012219460848FFF716F8FB7B1A46EB
:1028300006490548FFF710F8012000F0DFF80023F3
:1028400018461037BD4680BD3C020020C400002061
:1028500080B584B000AF7860164B1B689BB2C3F3A1
:102860000B039BB2FB8101237B737B68002B05D09C
:102870007868FFF749FE0346002B01D1012314E0DD
:10288000012000F0BBF807F10D03012219460A48A8
:10289000FEF7E2FF07F10E03022219460648FEF793
:1028A000DBFF012000F0AAF8002318461037BD46D0
:1028B00080BD00BF002004E03C02002080B584B051
:1028C00000AF78600023FB607B68002B05D0786840
:1028D000FFF71AFE0346002B01D1012330E0FFF77A
:1028E0002DFE0346002B01D0022329E0012000F039
:1028F00085F84FF47A73052279681348FFF71AF8C0
:102900000346012B01D004231AE07B681B68FB609F
:1029100005217868FFF716FF0346002B0DD0F868F5
:10292000FFF714FE0346002B07D0012000F066F8E5
:10293000F868FFF711FD002302E000F075F80323AB
:1029400018461037BD4680BD3C02002080B584B0DB
:1029500000AF78607B68002B05D07868FFF7D4FD66
:102960000346002B01D1012342E0FFF7E7FD0346B8
:10297000002B01D002233BE0012000F03FF84FF490
:102980007A73032279681C48FEF7D4FF0346012BB3
:1029900001D004232CE07B681B78FF2B02D1FFF7CA
:1029A0003FFB21E07B681B78BB737B685B787B73A4
:1029B00003217868FFF7C6FE0346002B03D100F021
:1029C00033F8032314E00023FB7309E07A7BFB7BDD
:1029D0001344DBB21846FFF7A1FAFB7B0133FB730C
:1029E000FA7BBB7B9A42F1D3012000F007F8002369
:1029F00018461037BD4680BD3C02002080B584B02B
:102A000000AF786079233B737B68DBB27B7307F19F
:102A10000C03012219460348FEF71EFF00BF1037C2
:102A2000BD4680BD3C02002080B582B000AF1F23B0
:102A3000FB71FB1D012219460348FEF70DFF00BF85
:102A40000837BD4680BD00BF3C02002080B582B083
:102A500000AFFFF7DDF91020FEF75AFD0346002B0B
:102A600005D1FFF7A1FC6420FFF713FAF3E7034B4E
:102A70007B607868FFF770FCEDE700BF004000085E
:102A80000D488546AFF300800C480D490D4A0023E0
:102A900002E0D458C4500433C4188C42F9D30A4A13
:102AA0000A4C002301E013600432A242FBD300F081
:102AB00011F8FFF7CBFFFEE70050002000000020D8
:102AC000CC0000203C2B0008CC000020600300203C
:102AD000FEE7000070B500260C4D0D4C641BA410E1
:102AE000A64209D100F01AF800260A4D0A4C641BD0
:102AF000A410A64205D170BD55F8043B9847013695
:102B0000EEE755F8043B98470136F2E7342B00080E
:102B1000342B0008342B0008382B0008F8B500BF10
:102B2000F8BC08BC9E467047F8B500BFF8BC08BCAE
:042B30009E46704706
:042B3400550100083F
:042B3800310100085F
:102B3C00000A000000000000000000200200040059
:102B4C000800100040008000000100020200040098
:102B5C000800100002030405060708090A0B0C0DF7
:102B6C000E0F101000000200000003020200010210
:102B7C000100000302000002010302000302020034
:102B8C000201010002000201030200010002010027
:102B9C000201000200020101000201000201000218
:102BAC00010002010002000201000201000201000A
:102BBC0002010303000303000002010002010100F3
:102BCC0000010000010002010002010002010002EC
:102BDC0001000201000201000201000201000201D9
:102BEC0000020100020100020100020100000100CC
:0C2BFC0002000000000102112131430022
:0400000508002A8144
:00000001FF
